:040000008A11112828
:10000800FE00030EF0000408F1000A08F200831253
:1000180003137F08F3008A11C9288A111328F901EC
:1000280083132030840036308A11312183018A11EC
:100038003929F8016628831203133508A500340806
:10004800A4003308A3003208A2008A11A3208A1151
:10005800750883120313A1007408A00005308A11E3
:100068000E210800831203133508AB003408AA00D8
:100078003308A9003208A8008A11A3208A1175083C
:1000880083120313A7007408A60006308A110E21F4
:100098000800831203133508B1003408B000330890
:1000A800AF003208AE008A11A3208A1175088312A6
:1000B8000313AD007408AC0004308A110E21080047
:1000C800F80108000130F807FF307807003A0319F3
:1000D8001F28013A03193628033A03194D28013A13
:1000E8000319772864280800831203133508BB0016
:1000F8003408BA003308B9003208B8008312031371
:1001080035083B02031D922834083A02031D922841
:1001180033083902031D922832083802031882284E
:100128003508BB003408BA003308B9003208B800F3
:100138008A111D208A118A114C218A118228831262
:100148000313B601B70179080319C22883160313EC
:100158001E08F600F701760883120313B600770825
:10016800B7001E08F600F7017608F700F6017608D2
:10017800B6070318B70A7708B707C4280C139F14E3
:100188003708F5003608F40008000B1DDC28E630B7
:1001980081000B110130B207003003180130B3079A
:1001A800003003180130B407003003180130B507D8
:1001B8007308FF0072088A0071088400700E8300BB
:1001C800FE0E7E0E09008A1146218A118A11272106
:1001D8008A118A111B218A118A1140218A118A11D8
:1001E800FC208B170B17E6308312031381000800DD
:1001F800831203139F171F08E33910389F001F1439
:10020800831603131F179F121F160C17831203134D
:100218000C130800F5007508F400F40DF40D8312B2
:1002280003131F087406E33974069F000800831639
:1002380003130714871407150716871685128312E8
:100248000313851608008316031381128111011107
:10025800811401108B160B11080064008001840AB8
:10026800040603190034040632298A11E7208A118A
:100278008A1178208A1111288312031397170C30DA
:1002880093000800831603130F178F160F16080024
:0202980008005C
:02400E00F4FFBD
:00000001FF
