:040000008A11112828
:10000800FE00030EF6000408F7000A08F800831241
:1000180003137F08F9008A11B6288A111328F00102
:10002800F101F201F301F401831320308400483018
:100038008A11112283018A11192A7208031D0800E6
:10004800A9288A112622013083120313CE004E08F4
:10005800F1070800740803190800F4018312031358
:100068002308A9002208A8002108A7002008A60044
:100078008A115C218A11831203134908A5004808D4
:10008800A40005308A11EE21013083120313CE003B
:100098004E08F10708008A11262201308312031343
:1000A800CE004E08F1070800740803190800F4018F
:1000B800831203132308AF002208AE002108AD0005
:1000C8002008AC008A115C218A11831203134908A5
:1000D800AB004808AA0006308A11EE2101308312CD
:1000E8000313CE004E08F10708008A1126220130BA
:1000F80083120313CE004E08F10708007408031991
:100108000800F401831203132308B5002208B40081
:100118002108B3002008B2008A115C218A118312D9
:1001280003134908B1004808B00004308A11EE21D1
:10013800013083120313CE004E08F1070800F201C4
:10014800F20AF1010800F101080071088400073083
:1001580004020318A72801308A000310040DD23EB8
:10016800820008000B1DC928E63081000B11013000
:10017800A007003003180130A10700300318013030
:10018800A207003003180130A3070C1FD028013044
:10019800F5007508F4000C138C1CFA287308031971
:1001A800FA288C100130F007FF307007F500113085
:1001B80075020318F1287003FF3A113E363E840099
:1001C8008313000A0319EF287003FF3A113E363EE5
:1001D80084000008F628FE30F62812307006031D49
:1001E800F828FF309500FA28F301F0017908FF009C
:1001F80078088A0077088400760E8300FE0E7E0E4B
:10020800090083120313CF004808CB004B08CE0027
:100218004F08CB004B08CD000130C9020030031C49
:10022800CA03CA02490A03194A0A031908004E08F0
:10023800840083130008CB004B08CC000130CB00AE
:100248004B08CE074C08CB004D0884004B088000B3
:100258000130CB004B08CD07102983120313230864
:10026800D9002208D8002108D7002008D600831218
:10027800031323085902031D4B2922085802031DA2
:100288004B2921085702031D4B2920085602031841
:100298003B292308D9002208D8002108D7002008C4
:1002A800D6008A1121208A118A11C1218A113B297D
:1002B80083120313CC01CD01831603131E08831286
:1002C8000313CA00CB014A08CC004B08CD001E0816
:1002D800CA00CB014A08CB00CA014A08CC07031858
:1002E800CD0A4B08CD074D08C9004C08C8000800C6
:1002F80083120313D4005408D1005108C8005008D1
:10030800D200D3015208C9005308CA0036308A11F6
:1003180005218A1183120313470A031995294708EF
:100328009629FE309500F301F30A08008A1120226D
:100338008A118A1107228A118A11FB218A118A11CE
:10034800E0218A118A11AF218B170B17E63083122F
:10035800031381000800831203139F171F08E33952
:1003680010389F001F14831603131F179F121F16A0
:100378000C17831203130C130800720803190800E2
:100388007308031D0800F201123083120313D5000D
:100398005508D00024308A117C2108008A112528AC
:1003A8008A112E288A114F288A1158288A117928EB
:1003B8008A1182288A11A3288312031397171030F1
:1003C800930091151615831603130C148312031347
:1003D8009616080083120313C9004908C800C80DFF
:1003E800C80D1F084806E33948069F000800831611
:1003F8000313071487140715071687168512831227
:100408000313851608008316031381128111011145
:10041800811401108B160B11080064008001840AF6
:100428000406031900340406122A8A119A218A1133
:100438008A1131218A111128831603130F178F1679
:0E0448000F160800831203130C139F140800F4
:02400E00F4FFBD
:00000001FF
