:040000008A11FD2F35
:100F5800AC2F831603130F178F160F160800831272
:100F6800031397170C30930008008A11E8278A1199
:100F78008A11AC278A110028831603138112811164
:100F88000111811401108B160B110800831603132D
:100F9800071487140715071687168512831203137B
:100FA80085160800831203139F171F08E3391038AA
:100FB8009F001F14831603131F179F121F160C1769
:100FC800831203130C1308008A11AD278A118A11A2
:100FD800C0278A118A11CA278A118A11B3278A1150
:100FE8008A11D6278B170B17E6308312031381005B
:080FF800080083018A11B92FE2
:02400E00F4FFBD
:00000001FF
