S01300004145524953303256312E302E7372656356
S11300000C9434000C9446000C9446000C94460066
S11300100C9446000C9446000C9446000C94460044
S11300200C9446000C9446000C9446000C94460034
S11300300C9446000C9446000C9446000C94460024
S11300400C9448000C9446000C9446000C94460012
S11300500C9446000C9446000C9446000C94460004
S11300600C9446000C94460011241FBECFEFD8E038
S1130070DEBFCDBF21E0A0E0B1E001C01D92A430FD
S1130080B207E1F70E9499000C949D000C940000C3
S11300901F920F920FB60F9211248F939F93AF93D9
S11300A0BF9386E086BD9BB182E089278BB980919E
S11300B0000190910101A0910201B0910301019608
S11300C0A11DB11D8093000190930101A093020131
S11300D0B0930301BF91AF919F918F910F900FBE89
S11300E00F901F9018958FEF8AB91BB882E085BDD9
S11300F081E080936E0086E086BD7894089521E0C7
S11301008091000190910101A0910201B09103013D
S113011080319742A105B10598F38BB182278BB941
S11301201092000110920101109202011092030139
S1110130E7CF0E9473000E947F00F894FFCF77
S9030000FC
